:03000000020800F3
:0C080000787FE4F6D8FD75810B020847F4
:0409180002080000D1
:1008C300C290D2B2D2B3D2AFD2A8D2A9D2AB7589D9
:0F08D30012E4F58CF58A758DFC758B18D28E2288
:0F08F500E4F508F509C3E5099FE5089E40F722E1
:03000B0002091DCA
:03091D00B2903263
:03001B000208E2F6
:1008E200C0E0758DFC758B180509E50970020508D5
:0308F200D0E03221
:0300030002090FE0
:09090F00D28CC2A8D2AAD28E3209
:03001300020904DB
:0B090400C28CC290D2A8C2AAC28E32E0
:06088C001208C3308CFDD0
:10089200750A00750B05C3E50A6480948040EE85F5
:1008A2000BA0E50B450A7008C28CC290D2A8C2AA5E
:1008B2007FE87E031208F5E50B150B70D9150A8047
:0108C200D560
:10080C0002088CE493A3F8E493A34003F68001F26E
:10081C0008DFF48029E493A3F85407240CC8C333ED
:10082C00C4540F4420C8834004F456800146F6DFBC
:10083C00E4800B0102040810204080900918E47E2B
:10084C00019360BCA3FF543F30E509541FFEE493B1
:10085C00A360010ECF54C025E060A840B8E493A378
:10086C00FAE493A3F8E493A3C8C582C8CAC583CAA3
:10087C00F0A3C8C582C8CAC583CADFE9DEE780BE5B
:01091C0000DA
:00000001FF
