:03000000020800F3
:0C080000787FE4F6D8FD758109020847F6
:0408E1000208000009
:1008C700E4F5A0D2AFD2A9D288D28C758901758CF4
:0508D700FC758A1822E7
:03000B0002088C5C
:10088C00C0E0C0D0758CFC758A18E509B4E81FE58A
:10089C0008B4031AE5A030E70575A0008008E5A0B0
:1008AC0025E04401F5A075080075090080080509CC
:0B08BC00E50970020508D0D0D0E03242
:0508DC001208C780FEB8
:10080C000208DCE493A3F8E493A34003F68001F21E
:10081C0008DFF48029E493A3F85407240CC8C333ED
:10082C00C4540F4420C8834004F456800146F6DFBC
:10083C00E4800B01020408102040809008E1E47E63
:10084C00019360BCA3FF543F30E509541FFEE493B1
:10085C00A360010ECF54C025E060A840B8E493A378
:10086C00FAE493A3F8E493A3C8C582C8CAC583CAA3
:10087C00F0A3C8C582C8CAC583CADFE9DEE780BE5B
:0108E5000012
:00000001FF
