:03000000020800F3
:0C080000787FE4F6D8FD758109020847F6
:0308DF000108000D
:1008BB00758920758DFD759850D28ED2AFD2AC2232
:0808D7008F993099FDC29922AE
:030023000208CB05
:0C08CB00309808859909C2987508013220
:10088C00C2A11208BBE508640170FAE509B4310491
:10089C00D2A18002C2A17F0D1208D77F4F1208D7B8
:0F08AC007F4B1208D77F0D1208D7E4F50880D6CE
:10080C0002088CE493A3F8E493A34003F68001F26E
:10081C0008DFF48029E493A3F85407240CC8C333ED
:10082C00C4540F4420C8834004F456800146F6DFBC
:10083C00E4800B01020408102040809008DFE47E65
:10084C00019360BCA3FF543F30E509541FFEE493B1
:10085C00A360010ECF54C025E060A840B8E493A378
:10086C00FAE493A3F8E493A3C8C582C8CAC583CAA3
:10087C00F0A3C8C582C8CAC583CADFE9DEE780BE5B
:0108E2000015
:00000001FF
