:10020D004875796E6820486F616E672048610030CF
:10021D0037313139303134004B544D54004368611E
:04022D00723A200001
:100003007508411201E67BFF7A02790DE4FDFF12C8
:10001300004F7BFF7A02791CE4FD7F0112004F7BC6
:10002300FF7A027925E4FD7F0212004FE4FD7F038E
:1000330012011D7BFF7A02792A1201BBAF0812005D
:0C004300DA05087FE87E0312023180F02D
:1001E600E4F5907F14FE1202317F021200977F28F9
:1001F6001200977F0F1200977F061200977F011259
:0702060000977F80020097C2
:100097008F0EE50E54F0FFE590540F4FF590C29088
:1000A700C291D2927F017E00120231C2927F027EFC
:1000B70000120231E50EC454F0FFE590540F4FF5DE
:1000C70090D2927F017E00120231C2927F057E009C
:0300D700020231F1
:10011D008F098D0AE5097008E50A541F2480802592
:10012D00E509B40108E50A541F24C08018E509B497
:10013D000208E50A541F2494800BE509B4030AE56F
:0A014D000A541F24D4FF1200972269
:1000DA008F13E51354F0FFE590540F4FF590D2902B
:1000EA00C291D2927F017E00120231C2927F027EB9
:1000FA0000120231E513C454F0FFE590540F4FF596
:10010A0090D2927F017E00120231C2927F057E0058
:03011A00020231AD
:0601BB008B0E8A0F891073
:1001C100E4F511F512AB0EAA0FA910851282851163
:1001D1008312018EFF600D1200DA0512E51270E53F
:0401E100051180E1A3
:0101E50022F7
:10004F008F098D0A8B0B8A0C890DE5097008E50A5B
:10005F00541F24808025E509B40108E50A541F24A4
:10006F00C08018E509B40208E50A541F2494800BD8
:10007F00E509B4030AE50A541F24D4FF120097AB15
:08008F000BAA0CA90D0201BB34
:060157008B148A158916C5
:10015D00EFC39408502AEF75F008A42440FF120055
:10016D0097E4F517AB14AA15A916851782758300A8
:10017D0012018EFF1200DA0517E517C3940840E44B
:01018D00224F
:10023100E4FDFCC3ED9FEC9E5015E4FBFA0BBB0003
:0F024100010AEB647B4A70F50DBD00010C80E4EF
:01025000228B
:10025100758902C374109FF58AC28DD28C308DFDD1
:03026100C28C222A
:0300000002026495
:0C026400787FE4F6D8FD758117020003D6
:10018E00BB010CE58229F582E5833AF583E0225026
:10019E0006E92582F8E622BBFE06E92582F8E22270
:0D01AE00E58229F582E5833AF583E493228A
:00000001FF
