:08019F00010204081020408059
:0B0189008E128F138F828E83EDF02208
:0A0194008E128F138F828E83E0FF1E
:01019E00223E
:10015D00E4FDFCC3ED9FEC9E5015E4FBFA0BBB00D8
:0F016D00010AEB647B4A70F50DBD00010C80E4C4
:01017C002260
:1000F900780A7C007D007BFF7A01799F7E007F086A
:100109001200D3E4F508F509740A2509F8E6FDAFEC
:1001190009AE081201890509E50970020508C394A9
:1001290008E5086480948040DFE4F508F509AF0923
:10013900AE08120194A90789907F647E0012015DBF
:100149000509E50970020508C39408E50864809467
:030159008040DB08
:01015C002280
:0300000002017D7D
:0C017D00787FE4F6D8FD7581130200F9CC
:10000300E709F608DFFA8046E709F208DFFA803EDF
:1000130088828C83E709F0A3DFFA8032E309F608CC
:10002300DFFA8078E309F208DFFA807088828C8334
:10003300E309F0A3DFFA806489828A83E0A3F608E8
:10004300DFFA805889828A83E0A3F208DFFA804CC2
:1000530080D280FA80C680D4806980F28033801099
:1000630080A680EA809A80A880DA80E280CA803302
:1000730089828A83ECFAE493A3C8C582C8CCC5837A
:10008300CCF0A3C8C582C8CCC583CCDFE9DEE7804A
:100093000D89828A83E493A3F608DFF9ECFAA9F0C9
:1000A300EDFB2289828A83ECFAE0A3C8C582C8CC1F
:1000B300C583CCF0A3C8C582C8CCC583CCDFEADE38
:1000C300E880DB89828A83E493A3F208DFF980CC9A
:1000D30088F0EF60010E4E60C388F0ED2402B40493
:1000E3000050B9F582EB2402B4040050AF2323453A
:0600F3008223900053730C
:00000001FF
