:030000000208CA29
:0C08CA00787FE4F6D8FD75811D0209114D
:100BC30010083F065B4F666D7D077F6F777C395E4C
:020BD300797136
:100BA600E4F590120B5C120B81120A86120A3C12B3
:0D0BB60009E1120800120B37120ACB80E68D
:100B37007C007D0A7F0D7E0012095674082FF8E6A7
:100B4700F5A07E007F0D7C007D0A12095674082DE2
:040B5700F8E6F5B017
:010B5B002277
:100B5C00E4F518F519851990120B130519E51970A0
:100B6C00020518D39464E5186480948040E77FE80C
:050B7C007E03020B17CF
:100ACB00E4F518F519AE18AF197C007D0A1209561A
:100ADB0074082FF8E6F5A0AE18AF197C007D0A124A
:100AEB00095674082DF8E6F5B07F647E00120B17DB
:100AFB000519E51970020518C39464E51864809410
:030B0B008040C265
:010B0E0022C4
:10080000759001120B13E4F51CF51DF51875190808
:10081000E4F51AF51BE51924FFFFE51834FFFEC3C4
:10082000E51B9FEE6480F8E51A6480985011E5900E
:1008300025E0120B0F051BE51B70DA051A80D6AFF9
:1008400090751C008F1DEF4401120B11E51915194D
:1008500070021518D3E5199400E51864809480504F
:10086000AFE5906290120B13759080120B13E4F5B4
:100870001CF51DF518751908E4F51AF51BE5192482
:10088000FFFFE51834FFFEC3E51B9FEE6480F8E52B
:100890001A6480985011E590C313120B0F051BE5E5
:1008A0001B70DA051A80D6AF90751C008F1DEF44BF
:1008B00080120B11E519151970021518D3E519945A
:0908C00000E5186480948050AF3B
:0108C900220C
:1009E100539018120B13E4F518F519E590C313424F
:1009F10090E59025E04290120B130519E51970025C
:100A01000518C39404E5186480948040DE539081F6
:100A1100120B13E4F518F519E590C3134290E59014
:100A210025E04290120B130519E51970020518C350
:0A0A31009404E5186480948040DE10
:010A3B002298
:100A3C00E4F518F519E59025E04401120B110519A0
:100A4C00E51970020518C39408E518648094804079
:100A5C00E4539080120B13751800751901E590C3BF
:100A6C00134480120B110519E51970020518C39473
:090A7C0008E5186480948040E450
:010A8500224E
:100A8600759001120B13E4F518F519E59025E0129F
:100A96000B110519E51970020518C39407E51864CA
:100AA60080948040E6E4F518F519E590C313120B1F
:100AB600110519E51970020518C39408E518648034
:040AC600948040E6F2
:010ACA002209
:100B8100E4F518F5197590FF120B136390FF120B22
:100B9100130519E51970020518C3940AE518648054
:040BA100948040E11B
:010BA500222D
:080B0F00451DF5907FF47E0105
:100B1700E4FDFCC3ED9FEC9E5015E4FBFA0BBB0014
:0F0B2700010AEB647B4A70F50DBD00010C80E400
:010B3600229C
:1008D600020BA6E493A3F8E493A34003F68001F287
:1008E60008DFF48029E493A3F85407240CC8C33323
:1008F600C4540F4420C8834004F456800146F6DFF2
:10090600E4800B0102040810204080900BC3E47EB3
:10091600019360BCA3FF543F30E509541FFEE493E6
:10092600A360010ECF54C025E060A840B8E493A3AD
:10093600FAE493A3F8E493A3C8C582C8CAC583CAD8
:10094600F0A3C8C582C8CAC583CADFE9DEE780BE90
:010BD500001F
:10095600C2D5EC30E709B2D5E4C39DFDE49CFCEEBC
:1009660030E715B2D5E4C39FFFE49EFE12098CC39F
:10097600E49DFDE49CFC800312098C30D507C3E49A
:060986009FFFE49EFE222B
:10098C00BC000BBE0029EF8DF084FFADF022E4CC4F
:10099C00F875F008EF2FFFEE33FEEC33FCEE9DEC18
:1009AC00984005FCEE9DFE0FD5F0E9E4CEFD22ED5E
:1009BC00F8F5F0EE8420D21CFEADF075F008EF2FA8
:1009CC00FFED33FD4007985006D5F0F222C398FD99
:0509DC000FD5F0EA2236
:00000001FF
