:03000000020800F3
:0C080000787FE4F6D8FD758109020847F6
:0408CB00020800001F
:03000B0002088C5C
:10088C00C0E0758CFC758A180509E509700205082D
:03089C00D0E03277
:0F089F00758901758CFC758A1875A882D28C2218
:0F08AE00E4F508F509C3E5099FE5089E40F72228
:0E08BD0012089FB2A17FF47E011208AE80F5F2
:10080C000208BDE493A3F8E493A34003F68001F23D
:10081C0008DFF48029E493A3F85407240CC8C333ED
:10082C00C4540F4420C8834004F456800146F6DFBC
:10083C00E4800B01020408102040809008CBE47E79
:10084C00019360BCA3FF543F30E509541FFEE493B1
:10085C00A360010ECF54C025E060A840B8E493A378
:10086C00FAE493A3F8E493A3C8C582C8CAC583CAA3
:10087C00F0A3C8C582C8CAC583CADFE9DEE780BE5B
:0108CF000028
:00000001FF
