:1005270048656C6C6F20576F726C6431004E686958
:08053700657420646F3A200096
:1002AE001204E07BFF7A057927E4FDFF1203767BCB
:1002BE00FF7A057934E4FD7F01120376E4F513F538
:1002CE00167F0112031B8F15E51575F00A84E5F0F4
:1002DE002430F516E51575F00A8475F00A84E5F0FC
:1002EE002430F513E51575F064842430F5147D0A79
:1002FE007F01120444AF14120401AF13120401AFB4
:0D030E00161204017FE87E0312050780B47B
:1004E000E4F5907F14FE1205077F021203BE7F28F9
:1004F0001203BE7F0F1203BE7F061203BE7F0112DE
:0705000003BE7F800203BE71
:1003BE008F0DE50D54F0FFE590540F4FF590C29060
:1003CE00C291D2927F017E00120507C2927F027EF9
:1003DE0000120507E50DC454F0FFE590540F4FF5DC
:1003EE0090D2927F017E00120507C2927F057E0099
:0303FE00020507EE
:100444008F088D09E5087008E509541F248080256C
:10045400E508B40108E509541F24C08018E508B470
:100464000208E509541F2494800BE508B4030AE547
:0A04740009541F24D4FF1203BE2216
:100401008F12E51254F0FFE590540F4FF590D29002
:10041100C291D2927F017E00120507C2927F027EB5
:1004210000120507E512C454F0FFE590540F4FF593
:1004310090D2927F017E00120507C2927F057E0055
:03044100020507AA
:0604B5008B0D8A0E890F79
:1004BB00E4F510F511AB0DAA0EA90F85118285106D
:1004CB0083120273FF600D1204010511E51170E533
:0404DB00051080E1A7
:0104DF0022FA
:100376008F088D098B0A8A0B890CE5087008E50938
:10038600541F24808025E508B40108E509541F247C
:10039600C08018E508B40208E509541F2494800BB0
:1003A600E508B4030AE509541F24D4FF1203BEABC3
:0803B6000AAA0BA90C0204B510
:06047E008B178A18891992
:10048400EFC39408502AEF75F008A42440FF120328
:10049400BEE4F51AAB17AA18A919851A8275830048
:1004A400120273FF120401051AE51AC3940840E40A
:0104B4002225
:10050700E4FDFCC3ED9FEC9E5015E4FBFA0BBB002A
:0F051700010AEB647B4A70F50DBD00010C80E416
:0105260022B2
:10053F00758902C374109FF58AC28DD28C308DFDE0
:03054F00C28C2239
:03000B00020003ED
:03000300B2843292
:10031B00758902758AEC758CECD28CD2A9D2AF752B
:10032B00A0FFD286C283C285EF139280EFA2E19227
:10033B0081A2E29282D283D285C283C2852086FDBE
:10034B003086FDD287AFA0C287AC07E41201BEE4B2
:10035B00FBFA797F784312000EE4FBFA797F78433E
:0A036B001201171201F2C28CC2A9A0
:010375002265
:10000E00EC4D6011E8497017ED33EC3304600DE4EC
:10001E00FCFFFEFD22E933E8330470F802025E12A3
:10002E00022958046009E4CC2481500628500902A4
:10003E000268284003020265C0E0EB4A7044B980B2
:10004E0006D0E0FB020254EF4E701CBD8008EBFFA1
:10005E00EAFEE9FD80EBE98DF0A4FEE5F00200F783
:10006E00E9CDF9EAFEEBFFEF89F0A4FCE5F0CE89CD
:10007E00F0A42EFFE435F0CD89F0A42DFEE435F08A
:10008E008067EF4E7005BD80D780C3EF8BF0A4ACB8
:10009E00F0EE8BF0A42CFCE435F0F8EF8AF0A42CF3
:1000AE00E5F038FCE433CB8DF0A42CFCE5F03BF806
:1000BE00EE8AF0A42CFCE5F038F8E433CF89F0A4F6
:1000CE002CFCE5F038CF3400CE89F0A42FFFE5F0FC
:1000DE003EFEE433C98DF0A42EFEE5F039CD8AF054
:1000EE00A42FFFE5F03EFEE43DFD33D0E0FB5007CC
:1000FE000BBB000F020268EC2CFCEF33FFEE33FE5D
:06010E00ED33FD0202408A
:10011400020268EC5D046005E85904700302025EA3
:10012400120229580460F6EC4860F2EC7004FDFEFB
:10013400FF22C860DB2481C85009C39860025006BE
:100144000202659850CAF582E9294B4A7005AB82D0
:1001540002025475F0007C1A7880C3EF9BEE9AED8E
:1001640099400DC3EF9BFFEE9AFEED99FDE842F036
:10017400DC23ACF0D0E0FFD0E0FED0E0FDAB822089
:10018400E7101BEB60BAEC2CFCEF33FFEE33FEED13
:1001940033FD020240E803F830E705C0F075F000D3
:1001A400EF2FFFEE33FEED33FD40B830E7C280AAF7
:1001B40075F020800E75F010800575F0087D007EC6
:1001C400007F003392D530D5031202A0EC334010E7
:1001D400EF33FFEE33FEED33FDEC33FCD5F0ED22CF
:0E01E400E5F0247EA2D513CC92E7CDCEFF220B
:1001F200EDD2E7CD33EC3392D524814006E4FFFE05
:10020200FDFC22FCE4CFCECDCC24E0501174FF8063
:10021200EDC3CC13CCCD13CDCE13CECF13CF047000
:07022200F030D5DE0202A05E
:10022900E9D2E7C933E833F892D5EDD2E7CD33EC1B
:0702390033FC5002B2D52294
:10024000EC30E7100FBF000C0EBE00080DBD00041F
:100250000BEB6014A2D5EB13FCED92E7FD2274FFCB
:10026000FCFDFEFF22E480F8A2D574FF13FC7D8024
:03027000E480EF38
:03000000020552A4
:0C055200787FE4F6D8FD75811A0202AE35
:10027300BB010CE58229F582E5833AF583E0225040
:1002830006E92582F8E622BBFE06E92582F8E2228A
:0D029300E58229F582E5833AF583E49322A4
:0E02A000C3E49FFFE49EFEE49DFDE49CFC226F
:00000001FF
