:030000000208668D
:0C086600787FE4F6D8FD75810902082CAB
:10085200E4F590D2B1D2B2D2B3D288C28AD2AFD2A8
:04086200A8D2AA224C
:030003000208727E
:04087200759000324B
:030013000208766A
:01087600324F
:10082C0012085220B1FD20B10512080080F830B139
:10083C00F2AF90EF64807003120800E59025E0F5AC
:06084C009012080380E891
:070800007590017FF47E01F9
:0A080700E4FDFCC3ED9FEC9E501AC7
:10081100E4F508F5090509E50970020508647B4559
:030821000870F26A
:070824000DBD00010C80DF97
:01082B0022AA
:00000001FF
