:030000000208BF34
:0C08BF00787FE4F6D8FD75810C02090674
:10094B006C656431206F6E006C656431206F666678
:10095B00006C656432206F6E006C656432206F66CC
:10096B0066004C65643320626C696E6B20002074EA
:10097B00696D657300426C696E6B20646F6E6521E7
:01098B00006B
:030A3700010B00B0
:1009FD00758920758DFD758BFDD28E759850D2AF92
:030A0D00D2AC2246
:080A2F008F993099FDC2992254
:03002300020A23AB
:0C0A230030980885990CC298750B0132C0
:0609B9008B088A09890A7F
:1009BF00E4FDFCAB08AA09A90A8D828C8312098C6D
:0D09CF00FF600A120A2F0DBD00010C80E62A
:0109DC0022F8
:100800001209FDC290C291C292E50B640170FAE533
:100810000C24CE601F14602B146037146043240432
:1008200060030208B9D2907F0D120A2F7BFF7A096C
:10083000794B807DC2907F0D120A2F7BFF7A097958
:1008400053806ED2917F0D120A2F7BFF7A09795C5B
:10085000805FC2917F0D120A2F7BFF7A0979648035
:1008600050E50C643560FA74D0250CF50C7F0D1240
:100870000A2F7BFF7A09796D1209B9E50C2430FF44
:10088000120A2F7BFF7A0979791209B9E50C6016F3
:10089000B2927FF47E011209DDB2927FF47E0112E2
:1008A00009DD150C80E67F0D120A2F7BFF7A09798E
:0F08B000801209B97F0D120A2FE4F50B02080917
:1009DD00E4FDFCC3ED9FEC9E5015E4FBFA0BBB0050
:0F09ED00010AEB647B4A70F50DBD00010C80E43C
:0109FC0022D8
:100A1000758902C374109FF58AC28DD28C308DFD0A
:030A2000C28C2263
:1008CB00020800E493A3F8E493A34003F68001F23B
:1008DB0008DFF48029E493A3F85407240CC8C3332E
:1008EB00C4540F4420C8834004F456800146F6DFFD
:1008FB00E4800B0102040810204080900A37E47E4C
:10090B00019360BCA3FF543F30E509541FFEE493F1
:10091B00A360010ECF54C025E060A840B8E493A3B8
:10092B00FAE493A3F8E493A3C8C582C8CAC583CAE3
:10093B00F0A3C8C582C8CAC583CADFE9DEE780BE9B
:010A3A0000BB
:10098C00BB010CE58229F582E5833AF583E0225020
:10099C0006E92582F8E622BBFE06E92582F8E2226A
:0D09AC00E58229F582E5833AF583E4932284
:00000001FF
