:10097B0010083F065B4F666D7D077F6F777C395E96
:02098B00797180
:08098E00E4F59012091780FB4B
:10095B00E4FDFCC3ED9FEC9E5015E4FBFA0BBB00D2
:0F096B00010AEB647B4A70F50DBD00010C80E4BE
:01097A00225A
:10091700E4F518F519AE18AF197C007D0A12088C9A
:1009270074082FF8E6F5A0AE18AF197C007D0A12FF
:10093700088C74082DF8E6F5B07F647E0012095B19
:100947000519E51970020518C39464E518648094C5
:030957008040C21B
:01095A00227A
:03000000020800F3
:0C080000787FE4F6D8FD758119020847E6
:10088C00C2D5EC30E709B2D5E4C39DFDE49CFCEE87
:10089C0030E715B2D5E4C39FFFE49EFE1208C2C335
:1008AC00E49DFDE49CFC80031208C230D507C3E430
:0608BC009FFFE49EFE22F6
:10080C0002098EE493A3F8E493A34003F68001F26B
:10081C0008DFF48029E493A3F85407240CC8C333ED
:10082C00C4540F4420C8834004F456800146F6DFBC
:10083C00E4800B010204081020408090097BE47EC8
:10084C00019360BCA3FF543F30E509541FFEE493B1
:10085C00A360010ECF54C025E060A840B8E493A378
:10086C00FAE493A3F8E493A3C8C582C8CAC583CAA3
:10087C00F0A3C8C582C8CAC583CADFE9DEE780BE5B
:01098D000069
:1008C200BC000BBE0029EF8DF084FFADF022E4CC1A
:1008D200F875F008EF2FFFEE33FEEC33FCEE9DECE3
:1008E200984005FCEE9DFE0FD5F0E9E4CEFD22ED29
:1008F200F8F5F0EE8420D21CFEADF075F008EF2F73
:10090200FFED33FD4007985006D5F0F222C398FD63
:050912000FD5F0EA2200
:00000001FF
